:100000003AEF02F0F76A140FF66E000EF7220900BD
:10001000F55012004142432D4142432D41424300DD
:10002000EA6AA30EE96EEF500DE0060E016E006A5B
:10003000002EFED7012EFBD77B0E006E002EFED7C2
:10004000EF2EF3D7000CBA6BBB6B010EBC6FDA6AF4
:10005000D96ABF6BB20EBE6FEA6AB60EE96EBFC058
:10006000E2FFBEC0E1FFBCC0BDF0D890E550EE029B
:10007000F350BA23F450BB23BD2FF7D7BAC0DEFF2D
:10008000BBC0BAF0BB6BD8B0BB2BBE2BD8B4BF2B58
:10009000BC2BBC510508E0E1D0EF00F0B951BD190F
:1000A000800BC36FB9AF0BD0B61FB71FB81FB91FF6
:1000B000B62BD8B4B72BD8B4B82BD8B4B92BBDAFA6
:1000C0000BD0BA1FBB1FBC1FBD1FBA2BD8B4BB2B94
:1000D000D8B4BC2BD8B4BD2B006A016A026A036A8B
:1000E000BE6BBF6BC06BC16BBD51BC11BB11BA11F4
:1000F0002CE0200EC26FD890B637B737B837B93773
:10010000BE37BF37C037C137BD51C15D08E1BC51F3
:10011000C05D05E1BB51BF5D02E1BA51BE5D0FE3B9
:10012000BA51BE5FBB51D8A0BB3DBF5FBC51D8A088
:10013000BC3DC05FBD51D8A0BD3DC15FD880003679
:10014000013602360336C22FD6D7C3AF0BD0001EFE
:10015000011E021E031E002AD8B4012AD8B4022AA6
:10016000D8B4032AEA6ABE0EE96E000CAD6BAC6B24
:10017000AB6B010EAA6FAF6BB06BA6BF01D018D0EE
:10018000010EAF6FA6C0B5F0A5C0B4F0A4C0B3F027
:10019000A3C0B2F0FF0EB96FB86FB76FB66F53D789
:1001A00003C0A6F002C0A5F001C0A4F000C0A3F0F7
:1001B000AA5306E1AB5304E1AC5302E1AD5373E043
:1001C000A6C0B9F0A5C0B8F0A4C0B7F0A3C0B6F0FF
:1001D000BD6BBC6BBB6BA7C0BAF060DF03C0ADF0FA
:1001E00002C0ACF001C0ABF000C0AAF0036AB0518D
:1001F000A825016EA951032201C0B2F003C0B3F0DB
:10020000EACFB5F0E9CFB4F0A6C0B9F0A5C0B8F018
:10021000A4C0B7F0A3C0B6F0BD6BBC6BBB6BA7C0EE
:10022000BAF03CDFEFCF00F0ECCF01F0ECCF02F002
:10023000ECCF03F0B5C0EAFFB4C0E9FF03C0B9F0EA
:1002400002C0B8F001C0B7F000C0B6F0300E002414
:10025000006E000E0120000E0220000E0320B3C02D
:10026000EAFFB2C0E9FF00C0EFFF036AB051A82562
:10027000E96EA9510320EA6EEF5039080AE2036AD9
:10028000B051A825E96EA9510320EA6E070EEF24AC
:10029000EF6EB02BADC0A6F0ACC0A5F0ABC0A4F023
:1002A000AAC0A3F085D7AF2D0AD0036AB051A82504
:1002B000E96EA9510320EA6E2D0EEF6EB02BAE6BE6
:1002C000D890B031AE5D2FE2036AAE51A825E96E39
:1002D000A9510320EA6EEFCFB1F0036AAE51A82511
:1002E000016EA951032203C0B3F0AE51B05DFF0F00
:1002F000036AA825E96EA9510320EA6EEFCFB4F096
:10030000B3C0EAFF01C0E9FFB4C0EFFFAE51B05D7A
:10031000FF0F036AA825E96EA9510320EA6EB1C058
:10032000EFFFAE2BCDD7036AB051A825E96EA951D6
:100330000320EA6EEF6AA8C001F0A9C002F0000C29
:10034000A4C0A8F0A3C0A7F0A8C003F0A7C0E9FF0D
:10035000A8C0EAFFEF5204E0A72BD8B4A82BF4D72B
:10036000A6C003F0A5C0E9FFA6C0EAFFEF5213E064
:10037000A5C0E9FFA6C0EAFFEFCFABF0A8C0EAFF37
:10038000A7C0E9FFABC0EFFFA72BD8B4A82BA52BC4
:10039000D8B4A62BE5D7A7C0E9FFA8C0EAFFEF6A4B
:1003A000A3C001F0A4C002F0000CA335006EA43578
:1003B000016E00360136FC0E0016C250C30B001051
:1003C000C26EA60E006E002EFED70000CDEF02F02A
:1003D000006A016A026A036AAB6BAC6BAD6BAE6B11
:1003E000AA51A911A811A7112CE0200EAF6FD89027
:1003F000A337A437A537A637AB37AC37AD37AE3701
:10040000AA51AE5D08E1A951AD5D05E1A851AC5D11
:1004100002E1A751AB5D0FE3A751AB5FA851D8A094
:10042000A83DAC5FA951D8A0A93DAD5FAA51D8A005
:10043000AA3DAE5FD8800036013602360336AF2FB4
:10044000D6D7EA6AAB0EE96EFDEF02F0EF5210E08C
:10045000EACFA4F0E9CFA3F0EF509EA8FED7AD6E8F
:10046000A4C0EAFFA3C0E9FFE92AD8B4EA2AEED77C
:10047000B7EF03F0F86AD09EEA6AE96AB886080E18
:10048000AF6E020EB06EA60EAC6E900EAB6E0A6A28
:10049000C150C00B0F09C16E070EB46E046A056A25
:1004A0000C6A0B6A410E0C6E420E0D6E430E0E6E00
:1004B0002D0E0F6E410E106E420E116E430E126E17
:1004C0002D0E136E410E146E420E156E430E166EF7
:1004D000230E176E186A206A1F6A1E6A1D6A410E73
:1004E000216E420E226E430E236E2D0E246E410E9F
:1004F000256E420E266E430E276E2D0E286E410E7F
:10050000296E420E2A6E430E2B6E2C6A490E9F6F87
:10051000A06B3A0EA16FA26BC150C00BC16EC08020
:10052000C082C084C08EC280C00EF2120A0EA36FB9
:1005300077DD1A6A196A1A52D8A40ED119500C081C
:10054000D8A00AD1A66BA56B1AC0A4F019C0A3F05D
:100550000A0EA76FA96B9C0EA86F08DEA46B210E74
:10056000A36FA66B9F0EA56FEBDEA46B210EA36F8E
:10057000A66B9C0EA56FE4DEA46B210EA36FA66B89
:10058000A10EA56FDDDEA60E006E002EFED70000C8
:100590001AC0A4F019C0A3F008D7A60E006E002E52
:1005A000FED700001C6A1B6A1C50050817E303E114
:1005B0001B50DB0813E3C282C2B2FED7C4CF03F0E4
:1005C000026A036AC3501D26C4501E2202501F2215
:1005D000035020221B2AD8B41C2AE6D720C0A6F03C
:1005E0001FC0A5F01EC0A4F01DC0A3F0AA6BA96B8C
:1005F000050EA86FDC0EA76FEBD603C020F002C07B
:100600001FF001C01EF000C01DF01A5203E1195086
:1006100004080DE220520BE11F5209E11E5207E1CE
:100620001D50CB0804E3206A1F6A1E6A1D6A1A5215
:10063000D8A46BD019500408D8A067D019C000F016
:100640001A50036E02E1005215E0035003E1010E5F
:10065000005C1FE0035003E1020E005C29E0035040
:1006600003E1030E005C33E0035003E1040E005C81
:100670003DE04BD020520AE11F5208E11E5206E134
:100680001D50090803E395988C9802D095988C88A2
:100690003CD020520AE11F5208E11E5206E11D50D3
:1006A000090803E395968C9602D095968C862DD0FA
:1006B00020520AE11F5208E11E5206E11D500908AE
:1006C00003E395948C9402D095948C841ED0205290
:1006D0000AE11F5208E11E5206E11D50090803E31A
:1006E00095928C9202D095928C820FD020520AE182
:1006F0001F5208E11E5206E11D50090803E39590C0
:100700008C9002D095908C8000D020C0A6F01FC0A5
:10071000A5F01EC0A4F01DC0A3F00A0EA76FA96B20
:10072000960EA86F23DDA46B210EA36FA66B960E09
:10073000A56F06DEEA6A960EE96EE26A0B0EE16EBE
:10074000E752E6CFEEFFFCE1206A1F6A1E6A1D6ACF
:10075000192AD8B41A2AEFD6A46B210EA36FA66B60
:100760000C0EA56FEDDDEA6A210EE96E6FD60D0E57
:100770009EA8FED7AD6E0A0E9EA8FED7AD6EEA6AA1
:10078000210EE96EE26A0B0EE16EE752E6CFEEFF54
:10079000FCE1EA6A210EE96EF2CFA3F0F29E000EB0
:1007A00031DC0A000900F550EE6E0009FBE1A3BF41
:0C07B000F28E0A0EA36F34DCBCD60300EE
:020000040030CA
:0E00000027CC3E1E008781000FC00FE00F408E
:00000001FF
;PIC18F4550
;CRC=CFA4  CREATED="19-Nov-15 13:19"
